:0300000002028574
:0C028500787FE4F6D8FD7581400202CCC1
:080003001204621201E380FB0C
:1004620012001E7BFF7A0579BB7F01120654E4FF5E
:10047200120582E4F508C3E508940774809480505D
:100482001674362508F8A60874362508F9E4FAFB2E
:1004920012065B050880DF43CF101205EF0204D974
:1001E30043CF107B007A00790912050BEC4D4E4F7B
:1001F30060117B007A0079097F647E007D007C00BA
:1002030012059F12002EEF6002802E120615EF607A
:1002130002802612061EEF6002801E120627EF6080
:10022300028016120630EF6002800E120639EF606C
:10023300028006120642EF600E7F011205657D0102
:100243007C007F551204A2120607EF6034E5207587
:100253001A00F51B7E007F0A7D007B007A00791E61
:10026300120129E51A701AE51B24FE600A24FE60B8
:10027300042403700C8005E4FF0205827F0112054C
:020283006522F2
:03003B000203D0ED
:1003D000C0E0C0F0C083C082C0D075D000C000C0F3
:1003E00001C002C003C004C005C006C007120379E3
:1003F000E59D30E106539DFD751C01E59D30E0064D
:10040000539DFE751901D007D006D005D004D00346
:10041000D002D001D000D0D0D082D083D0F0D0E0B4
:0104200032A9
:03000B00020421CB
:10042100C0E0C0F0C083C082C0D075D000C000C0A1
:1004310001C002C003C004C005C006C007758A9090
:10044100758CE81205D5D007D006D005D004D003AD
:10045100D002D001D000D0D0D082D083D0F0D0E073
:010461003268
:03001B00020037A9
:010037003296
:03002B00020018B8
:03001800C2CF3222
:1005BB00E4FEEEC39F5009439A01539BFE0E80F25B
:0905CB00EE6F60037F00227F0146
:0105D4002204
:0706540089828A830201275D
:10056500E4FEEEC39F500CEF6004D2808002C2808F
:0C0575000E80EFEE6F60037F00227F011C
:010581002257
:100582007E01EED39F400CEF6004D2808002C280D5
:0C0592001E80EFEE6F60037F00227F01EF
:01059E00223A
:10031100EFFD7C00700853A1FE43A2018057ED64FC
:10032100014C700853A1FD43A2028049ED64024CC7
:10033100700853A1EF43A210803BED64034C700899
:1003410053A1DF43A220802DED64044C700853A11A
:10035100BF43A240801FED64054C70085391EF43E9
:1003610092108011ED64064C70085391DF43922086
:0803710080037F00227F0122BE
:07065B0012003EFF02031133
:09002E0020A0037F01227F0022C3
:0906150020A1037F01227F0022D5
:09061E0020A4037F01227F0022C9
:0906270020A5037F01227F0022BF
:0906300020A6037F01227F0022B5
:090639002094037F01227F0022BE
:090642002095037F01227F0022B4
:1005EF004391085392F7758FC0759D50759EE275B4
:0805FF00950475A901D2AF2299
:0A000E008F9FE51C60FCE4F51C2246
:06053B008B338A34893580
:10054100E4FEEEC39406748094805015AB33AA3454
:10055100A9358E82758300120057FF12000E0E809E
:03056100E17F0136
:010564002274
:0604A2008F2A8C2B8D2C2B
:1004A8007E007F067D007B007A00792D1201298568
:1004B8002A2DE52BF52EE52CF52FE52D252E252FBC
:1004C800F53075310D75320A7B007A00792D0205F9
:0104D8003BE8
:0E060700E52930E7067529007F01227F0022D9
:02002800AF9F88
:01002A0022B3
:100379001200288F1DE5295480704BE52930E609C4
:10038900EF64FB703E43298022E51DB5280443290B
:100399004022741E2529F8A61D0529E51E251F25BD
:1003A90020252125222523252425252526F528E56F
:1003B9001E64FA6003752900D3E529940A748094B0
:0603C900804003752900CD
:0103CF00220B
:1004D900758E07438901758A90758CE8C28CD2A9FB
:1004E900D28C438920758B60758D60C28ED2ABD258
:1004F9008EE4F5C875CB83F5CAC2CAD2ADD2CAD2C9
:02050900AF221F
:06066200043D0000000051
:0A001E00E4F540F53FF53EF53D2204
:1005D500AF40AE3FAD3EAC3DEF2401F540E43EF506
:0A05E5003FE43DF53EE43CF53D2205
:09064B00AF40AE3FAD3EAC3D22D4
:10059F008F2D8E2C8D2B8C2A12064B1200C5AF2D52
:0C05AF00AE2CAD2BAC2A9000040200DF43
:10050B008B2A8A2B892C900004120095120103C3AD
:10051B00E5409BFBE53F9AFAE53E99F9E53D98F8F6
:10052B00C3120084E440047F018001FFFEFDFC2226
:10029100020003E493A3F8E493A34003F68001F280
:1002A10008DFF48029E493A3F85407240CC8C3336E
:1002B100C4540F4420C8834004F456800146F6DF3D
:1002C100E4800B0102040810204080900662E47E65
:1002D100019360BCA3FF543F30E509541FFEE49332
:1002E100A360010ECF54C025E060A840B8E493A3F9
:1002F100FAE493A3F8E493A3C8C582C8CAC583CA24
:10030100F0A3C8C582C8CAC583CADFE9DEE780BEDB
:010668000091
:10003E00BB010689828A83E0225002E722BBFE02C0
:09004E00E32289828A83E49322F3
:10005700BB010CE58229F582E5833AF583E022505E
:1000670006E92582F8E622BBFE06E92582F8E222A8
:0D007700E58229F582E5833AF583E49322C2
:10008400EB9FF5F0EA9E42F0E99D42F0E89C45F0D2
:010094002249
:10009500BB010DE58229F582E5833AF5830201610D
:1000A5005007E92582F8020155BBFE07E92582F8CC
:1000B50002016DE58229F582E5833AF5830201792E
:1000C500BB010789828A830201CB5005E9F8020149
:0A00D500BFBBFE05E9F80201D722C7
:1000DF00BB010DE58229F582E5833AF5830201CB59
:1000EF005007E92582F80201BFBBFE07E92582F818
:0400FF000201D72201
:10010300BB010789828A830201965005E9F802013F
:1001130089BBFE05E9F80201A289828A830201AF45
:060123008A838982E47367
:10012900EF4E6012EF60010EEDBB010B89828A83ED
:10013900F0A3DFFCDEFA2289F05007F709DFFCA9FA
:0C014900F022BBFEFCF309DFFCA9F02251
:0C015500E6FC08E6FD08E6FE08E6FF22D6
:0C016100E0FCA3E0FDA3E0FEA3E0FF2211
:0C016D00E2FC08E2FD08E2FE08E2FF22CE
:10017900E493FC740193FD740293FE740393FF22CC
:0D018900E6FB08E6F908E6FA08E6CBF822E6
:0C019600E0F8A3E0F9A3E0FAA3E0FB22EC
:0D01A200E2FB08E2F908E2FA08E2CBF822DD
:1001AF00E493F8740193F9740293FA740393FB22A6
:0C01BF00ECF608EDF608EEF608EFF6226C
:0C01CB00ECF0A3EDF0A3EEF0A3EFF022A7
:0C01D700ECF208EDF208EEF208EFF22264
:00000001FF
